{
  "_format": "hh-sol-artifact-1",
  "contractName": "WavePortal",
  "sourceName": "contracts/WavePortal.sol",
  "abi": [
    {
      "inputs": [],
      "stateMutability": "payable",
      "type": "constructor"
    },
    {
      "anonymous": false,
      "inputs": [
        {
          "indexed": true,
          "internalType": "address",
          "name": "from",
          "type": "address"
        },
        {
          "indexed": false,
          "internalType": "uint256",
          "name": "timestamp",
          "type": "uint256"
        },
        {
          "indexed": false,
          "internalType": "string",
          "name": "name",
          "type": "string"
        },
        {
          "indexed": false,
          "internalType": "string",
          "name": "message",
          "type": "string"
        }
      ],
      "name": "NewWave",
      "type": "event"
    },
    {
      "inputs": [],
      "name": "getPartnerList",
      "outputs": [
        {
          "components": [
            {
              "internalType": "address",
              "name": "waver",
              "type": "address"
            },
            {
              "internalType": "string",
              "name": "name",
              "type": "string"
            },
            {
              "internalType": "string",
              "name": "message",
              "type": "string"
            },
            {
              "internalType": "uint256",
              "name": "timestamp",
              "type": "uint256"
            }
          ],
          "internalType": "struct WavePortal.partner[]",
          "name": "",
          "type": "tuple[]"
        }
      ],
      "stateMutability": "view",
      "type": "function"
    },
    {
      "inputs": [],
      "name": "getTotalWaves",
      "outputs": [
        {
          "internalType": "uint256",
          "name": "",
          "type": "uint256"
        }
      ],
      "stateMutability": "view",
      "type": "function"
    },
    {
      "inputs": [
        {
          "internalType": "uint256",
          "name": "",
          "type": "uint256"
        }
      ],
      "name": "partnerList",
      "outputs": [
        {
          "internalType": "address",
          "name": "waver",
          "type": "address"
        },
        {
          "internalType": "string",
          "name": "name",
          "type": "string"
        },
        {
          "internalType": "string",
          "name": "message",
          "type": "string"
        },
        {
          "internalType": "uint256",
          "name": "timestamp",
          "type": "uint256"
        }
      ],
      "stateMutability": "view",
      "type": "function"
    },
    {
      "inputs": [],
      "name": "totalWaves",
      "outputs": [
        {
          "internalType": "uint256",
          "name": "",
          "type": "uint256"
        }
      ],
      "stateMutability": "view",
      "type": "function"
    },
    {
      "inputs": [
        {
          "internalType": "string",
          "name": "name",
          "type": "string"
        },
        {
          "internalType": "string",
          "name": "message",
          "type": "string"
        }
      ],
      "name": "wave",
      "outputs": [],
      "stateMutability": "nonpayable",
      "type": "function"
    }
  ],
  "bytecode": "0x60806040526200004f6040518060400160405280601a81526020017f536d61727420636f6e74726163747320666f72206261626965730000000000008152506200005560201b620007431760201c565b620001e9565b620000f5816040516024016200006c919062000162565b6040516020818303038152906040527f41304fac000000000000000000000000000000000000000000000000000000007bffffffffffffffffffffffffffffffffffffffffffffffffffffffff19166020820180517bffffffffffffffffffffffffffffffffffffffffffffffffffffffff8381831617835250505050620000f860201b60201c565b50565b60008151905060006a636f6e736f6c652e6c6f679050602083016000808483855afa5050505050565b60006200012e8262000186565b6200013a818562000191565b93506200014c818560208601620001a2565b6200015781620001d8565b840191505092915050565b600060208201905081810360008301526200017e818462000121565b905092915050565b600081519050919050565b600082825260208201905092915050565b60005b83811015620001c2578082015181840152602081019050620001a5565b83811115620001d2576000848401525b50505050565b6000601f19601f8301169050919050565b61120080620001f96000396000f3fe608060405234801561001057600080fd5b50600436106100575760003560e01c8063291bcab31461005c578063518729591461007a5780639a2cdc0814610096578063b50424ae146100b4578063f13b874d146100d2575b600080fd5b610064610105565b6040516100719190610edd565b60405180910390f35b610094600480360381019061008f9190610a60565b61010b565b005b61009e6103a5565b6040516100ab9190610edd565b60405180910390f35b6100bc6103f0565b6040516100c99190610de4565b60405180910390f35b6100ec60048036038101906100e79190610acc565b6105d3565b6040516100fc9493929190610d91565b60405180910390f35b60005481565b600160008082825461011d919061100f565b925050819055506101646040518060400160405280601681526020017f257320776176656420772f206d6573736167652025730000000000000000000081525033836107dc565b600160405180608001604052803373ffffffffffffffffffffffffffffffffffffffff16815260200184815260200183815260200142815250908060018154018082558091505060019003906000526020600020906004020160009091909190915060008201518160000160006101000a81548173ffffffffffffffffffffffffffffffffffffffff021916908373ffffffffffffffffffffffffffffffffffffffff1602179055506020820151816001019080519060200190610229929190610940565b506040820151816002019080519060200190610246929190610940565b506060820151816003015550503373ffffffffffffffffffffffffffffffffffffffff167f0646f10b0148fe8db9a43af10b6956b53e1478c47afc7132c17e243449dfd33942848460405161029d93929190610ef8565b60405180910390a26000655af3107a40009050478111156102f3576040517f08c379a00000000000000000000000000000000000000000000000000000000081526004016102ea90610e9d565b60405180910390fd5b60003373ffffffffffffffffffffffffffffffffffffffff168260405161031990610d7c565b60006040518083038185875af1925050503d8060008114610356576040519150601f19603f3d011682016040523d82523d6000602084013e61035b565b606091505b505090508061039f576040517f08c379a000000000000000000000000000000000000000000000000000000000815260040161039690610ebd565b60405180910390fd5b50505050565b60006103e86040518060400160405280601781526020017f5765206861766520256420746f74616c2077617665732100000000000000000081525060005461087b565b600054905090565b60606001805480602002602001604051908101604052809291908181526020016000905b828210156105ca57838290600052602060002090600402016040518060800160405290816000820160009054906101000a900473ffffffffffffffffffffffffffffffffffffffff1673ffffffffffffffffffffffffffffffffffffffff1673ffffffffffffffffffffffffffffffffffffffff16815260200160018201805461049d906110e3565b80601f01602080910402602001604051908101604052809291908181526020018280546104c9906110e3565b80156105165780601f106104eb57610100808354040283529160200191610516565b820191906000526020600020905b8154815290600101906020018083116104f957829003601f168201915b5050505050815260200160028201805461052f906110e3565b80601f016020809104026020016040519081016040528092919081815260200182805461055b906110e3565b80156105a85780601f1061057d576101008083540402835291602001916105a8565b820191906000526020600020905b81548152906001019060200180831161058b57829003601f168201915b5050505050815260200160038201548152505081526020019060010190610414565b50505050905090565b600181815481106105e357600080fd5b90600052602060002090600402016000915090508060000160009054906101000a900473ffffffffffffffffffffffffffffffffffffffff169080600101805461062c906110e3565b80601f0160208091040260200160405190810160405280929190818152602001828054610658906110e3565b80156106a55780601f1061067a576101008083540402835291602001916106a5565b820191906000526020600020905b81548152906001019060200180831161068857829003601f168201915b5050505050908060020180546106ba906110e3565b80601f01602080910402602001604051908101604052809291908181526020018280546106e6906110e3565b80156107335780601f1061070857610100808354040283529160200191610733565b820191906000526020600020905b81548152906001019060200180831161071657829003601f168201915b5050505050908060030154905084565b6107d9816040516024016107579190610e06565b6040516020818303038152906040527f41304fac000000000000000000000000000000000000000000000000000000007bffffffffffffffffffffffffffffffffffffffffffffffffffffffff19166020820180517bffffffffffffffffffffffffffffffffffffffffffffffffffffffff8381831617835250505050610917565b50565b6108768383836040516024016107f493929190610e28565b6040516020818303038152906040527fe0e9ad4f000000000000000000000000000000000000000000000000000000007bffffffffffffffffffffffffffffffffffffffffffffffffffffffff19166020820180517bffffffffffffffffffffffffffffffffffffffffffffffffffffffff8381831617835250505050610917565b505050565b6109138282604051602401610891929190610e6d565b6040516020818303038152906040527f9710a9d0000000000000000000000000000000000000000000000000000000007bffffffffffffffffffffffffffffffffffffffffffffffffffffffff19166020820180517bffffffffffffffffffffffffffffffffffffffffffffffffffffffff8381831617835250505050610917565b5050565b60008151905060006a636f6e736f6c652e6c6f679050602083016000808483855afa5050505050565b82805461094c906110e3565b90600052602060002090601f01602090048101928261096e57600085556109b5565b82601f1061098757805160ff19168380011785556109b5565b828001600101855582156109b5579182015b828111156109b4578251825591602001919060010190610999565b5b5090506109c291906109c6565b5090565b5b808211156109df5760008160009055506001016109c7565b5090565b60006109f66109f184610f6e565b610f3d565b905082815260208101848484011115610a0e57600080fd5b610a198482856110a1565b509392505050565b600082601f830112610a3257600080fd5b8135610a428482602086016109e3565b91505092915050565b600081359050610a5a816111b3565b92915050565b60008060408385031215610a7357600080fd5b600083013567ffffffffffffffff811115610a8d57600080fd5b610a9985828601610a21565b925050602083013567ffffffffffffffff811115610ab657600080fd5b610ac285828601610a21565b9150509250929050565b600060208284031215610ade57600080fd5b6000610aec84828501610a4b565b91505092915050565b6000610b018383610cf4565b905092915050565b610b1281611065565b82525050565b610b2181611065565b82525050565b6000610b3282610fae565b610b3c8185610fd1565b935083602082028501610b4e85610f9e565b8060005b85811015610b8a5784840389528151610b6b8582610af5565b9450610b7683610fc4565b925060208a01995050600181019050610b52565b50829750879550505050505092915050565b6000610ba782610fb9565b610bb18185610fed565b9350610bc18185602086016110b0565b610bca816111a2565b840191505092915050565b6000610be082610fb9565b610bea8185610ffe565b9350610bfa8185602086016110b0565b610c03816111a2565b840191505092915050565b6000610c1b603483610ffe565b91507f547279696e6720746f207769746864726177206d6f7265206d6f6e657920746860008301527f616e2074686520636f6e7472616374206861732e0000000000000000000000006020830152604082019050919050565b6000610c81602683610ffe565b91507f4661696c656420746f207769746864726177206d6f6e65792066726f6d20636f60008301527f6e747261637400000000000000000000000000000000000000000000000000006020830152604082019050919050565b6000610ce7600083610fe2565b9150600082019050919050565b6000608083016000830151610d0c6000860182610b09565b5060208301518482036020860152610d248282610b9c565b91505060408301518482036040860152610d3e8282610b9c565b9150506060830151610d536060860182610d5e565b508091505092915050565b610d6781611097565b82525050565b610d7681611097565b82525050565b6000610d8782610cda565b9150819050919050565b6000608082019050610da66000830187610b18565b8181036020830152610db88186610bd5565b90508181036040830152610dcc8185610bd5565b9050610ddb6060830184610d6d565b95945050505050565b60006020820190508181036000830152610dfe8184610b27565b905092915050565b60006020820190508181036000830152610e208184610bd5565b905092915050565b60006060820190508181036000830152610e428186610bd5565b9050610e516020830185610b18565b8181036040830152610e638184610bd5565b9050949350505050565b60006040820190508181036000830152610e878185610bd5565b9050610e966020830184610d6d565b9392505050565b60006020820190508181036000830152610eb681610c0e565b9050919050565b60006020820190508181036000830152610ed681610c74565b9050919050565b6000602082019050610ef26000830184610d6d565b92915050565b6000606082019050610f0d6000830186610d6d565b8181036020830152610f1f8185610bd5565b90508181036040830152610f338184610bd5565b9050949350505050565b6000604051905081810181811067ffffffffffffffff82111715610f6457610f63611173565b5b8060405250919050565b600067ffffffffffffffff821115610f8957610f88611173565b5b601f19601f8301169050602081019050919050565b6000819050602082019050919050565b600081519050919050565b600081519050919050565b6000602082019050919050565b600082825260208201905092915050565b600081905092915050565b600082825260208201905092915050565b600082825260208201905092915050565b600061101a82611097565b915061102583611097565b9250827fffffffffffffffffffffffffffffffffffffffffffffffffffffffffffffffff0382111561105a57611059611115565b5b828201905092915050565b600061107082611077565b9050919050565b600073ffffffffffffffffffffffffffffffffffffffff82169050919050565b6000819050919050565b82818337600083830152505050565b60005b838110156110ce5780820151818401526020810190506110b3565b838111156110dd576000848401525b50505050565b600060028204905060018216806110fb57607f821691505b6020821081141561110f5761110e611144565b5b50919050565b7f4e487b7100000000000000000000000000000000000000000000000000000000600052601160045260246000fd5b7f4e487b7100000000000000000000000000000000000000000000000000000000600052602260045260246000fd5b7f4e487b7100000000000000000000000000000000000000000000000000000000600052604160045260246000fd5b6000601f19601f8301169050919050565b6111bc81611097565b81146111c757600080fd5b5056fea26469706673582212202cd8e34ca14c5439ed17e1e14ddd1f36d0e51fa3100c2967aea410977c0a05cd64736f6c63430008000033",
  "linkReferences": {},
  "deployedLinkReferences": {}
}