{
  "_format": "hh-sol-artifact-1",
  "contractName": "WavePortal",
  "sourceName": "contracts/WavePortal.sol",
  "abi": [
    {
      "inputs": [],
      "stateMutability": "nonpayable",
      "type": "constructor"
    },
    {
      "inputs": [],
      "name": "getPartnerList",
      "outputs": [
        {
          "components": [
            {
              "internalType": "string",
              "name": "name",
              "type": "string"
            },
            {
              "internalType": "string",
              "name": "message",
              "type": "string"
            },
            {
              "internalType": "uint256",
              "name": "waveNumber",
              "type": "uint256"
            }
          ],
          "internalType": "struct WavePortal.partner[]",
          "name": "",
          "type": "tuple[]"
        }
      ],
      "stateMutability": "view",
      "type": "function"
    },
    {
      "inputs": [],
      "name": "getTotalWaves",
      "outputs": [
        {
          "internalType": "uint256",
          "name": "",
          "type": "uint256"
        }
      ],
      "stateMutability": "view",
      "type": "function"
    },
    {
      "inputs": [
        {
          "internalType": "uint256",
          "name": "",
          "type": "uint256"
        }
      ],
      "name": "partnerList",
      "outputs": [
        {
          "internalType": "string",
          "name": "name",
          "type": "string"
        },
        {
          "internalType": "string",
          "name": "message",
          "type": "string"
        },
        {
          "internalType": "uint256",
          "name": "waveNumber",
          "type": "uint256"
        }
      ],
      "stateMutability": "view",
      "type": "function"
    },
    {
      "inputs": [],
      "name": "totalWaves",
      "outputs": [
        {
          "internalType": "uint256",
          "name": "",
          "type": "uint256"
        }
      ],
      "stateMutability": "view",
      "type": "function"
    },
    {
      "inputs": [
        {
          "internalType": "string",
          "name": "name",
          "type": "string"
        },
        {
          "internalType": "string",
          "name": "message",
          "type": "string"
        },
        {
          "internalType": "uint256",
          "name": "waveNumber",
          "type": "uint256"
        }
      ],
      "name": "wave",
      "outputs": [],
      "stateMutability": "nonpayable",
      "type": "function"
    }
  ],
  "bytecode": "0x60806040523480156200001157600080fd5b506200005d6040518060400160405280601a81526020017f536d61727420636f6e74726163747320666f72206261626965730000000000008152506200006360201b620007aa1760201c565b620001f7565b62000103816040516024016200007a919062000170565b6040516020818303038152906040527f41304fac000000000000000000000000000000000000000000000000000000007bffffffffffffffffffffffffffffffffffffffffffffffffffffffff19166020820180517bffffffffffffffffffffffffffffffffffffffffffffffffffffffff83818316178352505050506200010660201b60201c565b50565b60008151905060006a636f6e736f6c652e6c6f679050602083016000808483855afa5050505050565b60006200013c8262000194565b6200014881856200019f565b93506200015a818560208601620001b0565b6200016581620001e6565b840191505092915050565b600060208201905081810360008301526200018c81846200012f565b905092915050565b600081519050919050565b600082825260208201905092915050565b60005b83811015620001d0578082015181840152602081019050620001b3565b83811115620001e0576000848401525b50505050565b6000601f19601f8301169050919050565b61127a80620002076000396000f3fe608060405234801561001057600080fd5b50600436106100575760003560e01c8063291bcab31461005c5780639a2cdc081461007a578063b50424ae14610098578063be04a514146100b6578063f13b874d146100d2575b600080fd5b610064610104565b6040516100719190610f49565b60405180910390f35b61008261010a565b60405161008f9190610f49565b60405180910390f35b6100a0610155565b6040516100ad9190610e07565b60405180910390f35b6100d060048036038101906100cb9190610b60565b6102e2565b005b6100ec60048036038101906100e79190610bdf565b610660565b6040516100fb93929190610eb2565b60405180910390f35b60005481565b600061014d6040518060400160405280601781526020017f5765206861766520256420746f74616c20776176657321000000000000000000815250600054610843565b600054905090565b60606001805480602002602001604051908101604052809291908181526020016000905b828210156102d957838290600052602060002090600302016040518060600160405290816000820180546101ac90611114565b80601f01602080910402602001604051908101604052809291908181526020018280546101d890611114565b80156102255780601f106101fa57610100808354040283529160200191610225565b820191906000526020600020905b81548152906001019060200180831161020857829003601f168201915b5050505050815260200160018201805461023e90611114565b80601f016020809104026020016040519081016040528092919081815260200182805461026a90611114565b80156102b75780601f1061028c576101008083540402835291602001916102b7565b820191906000526020600020905b81548152906001019060200180831161029a57829003601f168201915b5050505050815260200160028201548152505081526020019060010190610179565b50505050905090565b600060018054905011156104ba57600080600090505b60018054905081101561042157846040516020016103169190610e29565b6040516020818303038152906040528051906020012060018281548110610366577f4e487b7100000000000000000000000000000000000000000000000000000000600052603260045260246000fd5b90600052602060002090600302016000016040516020016103879190610f27565b60405160208183030381529060405280519060200120141561040e5782600182815481106103de577f4e487b7100000000000000000000000000000000000000000000000000000000600052603260045260246000fd5b906000526020600020906003020160020160008282546103fe9190611040565b9250508190555060019150610421565b808061041990611146565b9150506102f8565b50806104b457600160405180606001604052808681526020018581526020018481525090806001815401808255809150506001900390600052602060002090600302016000909190919091506000820151816000019080519060200190610489929190610a40565b5060208201518160010190805190602001906104a6929190610a40565b506040820151816002015550505b50610547565b60016040518060600160405280858152602001848152602001838152509080600181540180825580915050600190039060005260206000209060030201600090919091909150600082015181600001908051906020019061051c929190610a40565b506020820151816001019080519060200190610539929190610a40565b506040820151816002015550505b806000808282546105589190611040565b9250508190555061059e6040518060400160405280600d81526020017f2573206861732077617665642100000000000000000000000000000000000000815250336108df565b6105dd6040518060400160405280600881526020017f4e616d653a2025730000000000000000000000000000000000000000000000008152508461097b565b61061c6040518060400160405280600b81526020017f4d6573736167653a2025730000000000000000000000000000000000000000008152508361097b565b61065b6040518060400160405280600f81526020017f57617665204e756d6265723a202573000000000000000000000000000000000081525082610843565b505050565b6001818154811061067057600080fd5b906000526020600020906003020160009150905080600001805461069390611114565b80601f01602080910402602001604051908101604052809291908181526020018280546106bf90611114565b801561070c5780601f106106e15761010080835404028352916020019161070c565b820191906000526020600020905b8154815290600101906020018083116106ef57829003601f168201915b50505050509080600101805461072190611114565b80601f016020809104026020016040519081016040528092919081815260200182805461074d90611114565b801561079a5780601f1061076f5761010080835404028352916020019161079a565b820191906000526020600020905b81548152906001019060200180831161077d57829003601f168201915b5050505050908060020154905083565b610840816040516024016107be9190610e29565b6040516020818303038152906040527f41304fac000000000000000000000000000000000000000000000000000000007bffffffffffffffffffffffffffffffffffffffffffffffffffffffff19166020820180517bffffffffffffffffffffffffffffffffffffffffffffffffffffffff8381831617835250505050610a17565b50565b6108db8282604051602401610859929190610ef7565b6040516020818303038152906040527f9710a9d0000000000000000000000000000000000000000000000000000000007bffffffffffffffffffffffffffffffffffffffffffffffffffffffff19166020820180517bffffffffffffffffffffffffffffffffffffffffffffffffffffffff8381831617835250505050610a17565b5050565b61097782826040516024016108f5929190610e4b565b6040516020818303038152906040527f319af333000000000000000000000000000000000000000000000000000000007bffffffffffffffffffffffffffffffffffffffffffffffffffffffff19166020820180517bffffffffffffffffffffffffffffffffffffffffffffffffffffffff8381831617835250505050610a17565b5050565b610a138282604051602401610991929190610e7b565b6040516020818303038152906040527f4b5c4277000000000000000000000000000000000000000000000000000000007bffffffffffffffffffffffffffffffffffffffffffffffffffffffff19166020820180517bffffffffffffffffffffffffffffffffffffffffffffffffffffffff8381831617835250505050610a17565b5050565b60008151905060006a636f6e736f6c652e6c6f679050602083016000808483855afa5050505050565b828054610a4c90611114565b90600052602060002090601f016020900481019282610a6e5760008555610ab5565b82601f10610a8757805160ff1916838001178555610ab5565b82800160010185558215610ab5579182015b82811115610ab4578251825591602001919060010190610a99565b5b509050610ac29190610ac6565b5090565b5b80821115610adf576000816000905550600101610ac7565b5090565b6000610af6610af184610f95565b610f64565b905082815260208101848484011115610b0e57600080fd5b610b198482856110d2565b509392505050565b600082601f830112610b3257600080fd5b8135610b42848260208601610ae3565b91505092915050565b600081359050610b5a8161122d565b92915050565b600080600060608486031215610b7557600080fd5b600084013567ffffffffffffffff811115610b8f57600080fd5b610b9b86828701610b21565b935050602084013567ffffffffffffffff811115610bb857600080fd5b610bc486828701610b21565b9250506040610bd586828701610b4b565b9150509250925092565b600060208284031215610bf157600080fd5b6000610bff84828501610b4b565b91505092915050565b6000610c148383610d92565b905092915050565b610c2581611096565b82525050565b6000610c3682610fea565b610c40818561100d565b935083602082028501610c5285610fc5565b8060005b85811015610c8e5784840389528151610c6f8582610c08565b9450610c7a83611000565b925060208a01995050600181019050610c56565b50829750879550505050505092915050565b6000610cab82610ff5565b610cb5818561101e565b9350610cc58185602086016110e1565b610cce8161121c565b840191505092915050565b6000610ce482610ff5565b610cee818561102f565b9350610cfe8185602086016110e1565b610d078161121c565b840191505092915050565b60008154610d1f81611114565b610d29818661102f565b94506001821660008114610d445760018114610d5657610d89565b60ff1983168652602086019350610d89565b610d5f85610fd5565b60005b83811015610d8157815481890152600182019150602081019050610d62565b808801955050505b50505092915050565b60006060830160008301518482036000860152610daf8282610ca0565b91505060208301518482036020860152610dc98282610ca0565b9150506040830151610dde6040860182610de9565b508091505092915050565b610df2816110c8565b82525050565b610e01816110c8565b82525050565b60006020820190508181036000830152610e218184610c2b565b905092915050565b60006020820190508181036000830152610e438184610cd9565b905092915050565b60006040820190508181036000830152610e658185610cd9565b9050610e746020830184610c1c565b9392505050565b60006040820190508181036000830152610e958185610cd9565b90508181036020830152610ea98184610cd9565b90509392505050565b60006060820190508181036000830152610ecc8186610cd9565b90508181036020830152610ee08185610cd9565b9050610eef6040830184610df8565b949350505050565b60006040820190508181036000830152610f118185610cd9565b9050610f206020830184610df8565b9392505050565b60006020820190508181036000830152610f418184610d12565b905092915050565b6000602082019050610f5e6000830184610df8565b92915050565b6000604051905081810181811067ffffffffffffffff82111715610f8b57610f8a6111ed565b5b8060405250919050565b600067ffffffffffffffff821115610fb057610faf6111ed565b5b601f19601f8301169050602081019050919050565b6000819050602082019050919050565b60008190508160005260206000209050919050565b600081519050919050565b600081519050919050565b6000602082019050919050565b600082825260208201905092915050565b600082825260208201905092915050565b600082825260208201905092915050565b600061104b826110c8565b9150611056836110c8565b9250827fffffffffffffffffffffffffffffffffffffffffffffffffffffffffffffffff0382111561108b5761108a61118f565b5b828201905092915050565b60006110a1826110a8565b9050919050565b600073ffffffffffffffffffffffffffffffffffffffff82169050919050565b6000819050919050565b82818337600083830152505050565b60005b838110156110ff5780820151818401526020810190506110e4565b8381111561110e576000848401525b50505050565b6000600282049050600182168061112c57607f821691505b602082108114156111405761113f6111be565b5b50919050565b6000611151826110c8565b91507fffffffffffffffffffffffffffffffffffffffffffffffffffffffffffffffff8214156111845761118361118f565b5b600182019050919050565b7f4e487b7100000000000000000000000000000000000000000000000000000000600052601160045260246000fd5b7f4e487b7100000000000000000000000000000000000000000000000000000000600052602260045260246000fd5b7f4e487b7100000000000000000000000000000000000000000000000000000000600052604160045260246000fd5b6000601f19601f8301169050919050565b611236816110c8565b811461124157600080fd5b5056fea2646970667358221220282015b01d7fcd9088f29f9b46a3bd438dd09679f49c89f9cccc77faffd6646c64736f6c63430008000033",
  "linkReferences": {},
  "deployedLinkReferences": {}
}