{
  "_format": "hh-sol-artifact-1",
  "contractName": "WavePortal",
  "sourceName": "contracts/WavePortal.sol",
  "abi": [
    {
      "inputs": [],
      "stateMutability": "payable",
      "type": "constructor"
    },
    {
      "anonymous": false,
      "inputs": [
        {
          "indexed": true,
          "internalType": "address",
          "name": "from",
          "type": "address"
        },
        {
          "indexed": false,
          "internalType": "uint256",
          "name": "timestamp",
          "type": "uint256"
        },
        {
          "indexed": false,
          "internalType": "string",
          "name": "name",
          "type": "string"
        },
        {
          "indexed": false,
          "internalType": "string",
          "name": "message",
          "type": "string"
        }
      ],
      "name": "NewWave",
      "type": "event"
    },
    {
      "inputs": [],
      "name": "getPartnerList",
      "outputs": [
        {
          "components": [
            {
              "internalType": "address",
              "name": "waver",
              "type": "address"
            },
            {
              "internalType": "string",
              "name": "name",
              "type": "string"
            },
            {
              "internalType": "string",
              "name": "message",
              "type": "string"
            },
            {
              "internalType": "uint256",
              "name": "timestamp",
              "type": "uint256"
            }
          ],
          "internalType": "struct WavePortal.partner[]",
          "name": "",
          "type": "tuple[]"
        }
      ],
      "stateMutability": "view",
      "type": "function"
    },
    {
      "inputs": [],
      "name": "getTotalWaves",
      "outputs": [
        {
          "internalType": "uint256",
          "name": "",
          "type": "uint256"
        }
      ],
      "stateMutability": "view",
      "type": "function"
    },
    {
      "inputs": [
        {
          "internalType": "address",
          "name": "",
          "type": "address"
        }
      ],
      "name": "lastWavedAt",
      "outputs": [
        {
          "internalType": "uint256",
          "name": "",
          "type": "uint256"
        }
      ],
      "stateMutability": "view",
      "type": "function"
    },
    {
      "inputs": [
        {
          "internalType": "uint256",
          "name": "",
          "type": "uint256"
        }
      ],
      "name": "partnerList",
      "outputs": [
        {
          "internalType": "address",
          "name": "waver",
          "type": "address"
        },
        {
          "internalType": "string",
          "name": "name",
          "type": "string"
        },
        {
          "internalType": "string",
          "name": "message",
          "type": "string"
        },
        {
          "internalType": "uint256",
          "name": "timestamp",
          "type": "uint256"
        }
      ],
      "stateMutability": "view",
      "type": "function"
    },
    {
      "inputs": [],
      "name": "totalWaves",
      "outputs": [
        {
          "internalType": "uint256",
          "name": "",
          "type": "uint256"
        }
      ],
      "stateMutability": "view",
      "type": "function"
    },
    {
      "inputs": [
        {
          "internalType": "string",
          "name": "name",
          "type": "string"
        },
        {
          "internalType": "string",
          "name": "message",
          "type": "string"
        }
      ],
      "name": "wave",
      "outputs": [],
      "stateMutability": "nonpayable",
      "type": "function"
    }
  ],
  "bytecode": "0x60806040526200004f6040518060400160405280601a81526020017f536d61727420636f6e74726163747320666f72206261626965730000000000008152506200007760201b6200091e1760201c565b606444426200005f9190620001c4565b6200006b919062000261565b60018190555062000308565b62000117816040516024016200008e919062000184565b6040516020818303038152906040527f41304fac000000000000000000000000000000000000000000000000000000007bffffffffffffffffffffffffffffffffffffffffffffffffffffffff19166020820180517bffffffffffffffffffffffffffffffffffffffffffffffffffffffff83818316178352505050506200011a60201b60201c565b50565b60008151905060006a636f6e736f6c652e6c6f679050602083016000808483855afa5050505050565b60006200015082620001a8565b6200015c8185620001b3565b93506200016e8185602086016200022b565b6200017981620002f7565b840191505092915050565b60006020820190508181036000830152620001a0818462000143565b905092915050565b600081519050919050565b600082825260208201905092915050565b6000620001d18262000221565b9150620001de8362000221565b9250827fffffffffffffffffffffffffffffffffffffffffffffffffffffffffffffffff0382111562000216576200021562000299565b5b828201905092915050565b6000819050919050565b60005b838110156200024b5780820151818401526020810190506200022e565b838111156200025b576000848401525b50505050565b60006200026e8262000221565b91506200027b8362000221565b9250826200028e576200028d620002c8565b5b828206905092915050565b7f4e487b7100000000000000000000000000000000000000000000000000000000600052601160045260246000fd5b7f4e487b7100000000000000000000000000000000000000000000000000000000600052601260045260246000fd5b6000601f19601f8301169050919050565b6115bc80620003186000396000f3fe608060405234801561001057600080fd5b50600436106100625760003560e01c8063291bcab31461006757806351872959146100855780639a2cdc08146100a1578063a42a4663146100bf578063b50424ae146100ef578063f13b874d1461010d575b600080fd5b61006f610140565b60405161007c9190611222565b60405180910390f35b61009f600480360381019061009a9190610d15565b610146565b005b6100a9610568565b6040516100b69190611222565b60405180910390f35b6100d960048036038101906100d49190610cec565b6105b3565b6040516100e69190611222565b60405180910390f35b6100f76105cb565b60405161010491906110d9565b60405180910390f35b61012760048036038101906101229190610d81565b6107ae565b6040516101379493929190611086565b60405180910390f35b60005481565b42610384600360003373ffffffffffffffffffffffffffffffffffffffff1673ffffffffffffffffffffffffffffffffffffffff168152602001908152602001600020546101949190611354565b106101d4576040517f08c379a00000000000000000000000000000000000000000000000000000000081526004016101cb90611202565b60405180910390fd5b42600360003373ffffffffffffffffffffffffffffffffffffffff1673ffffffffffffffffffffffffffffffffffffffff16815260200190815260200160002081905550600160008082825461022a9190611354565b925050819055506102716040518060400160405280601681526020017f257320776176656420772f206d6573736167652025730000000000000000000081525033836109b7565b600260405180608001604052803373ffffffffffffffffffffffffffffffffffffffff16815260200184815260200183815260200142815250908060018154018082558091505060019003906000526020600020906004020160009091909190915060008201518160000160006101000a81548173ffffffffffffffffffffffffffffffffffffffff021916908373ffffffffffffffffffffffffffffffffffffffff1602179055506020820151816001019080519060200190610336929190610bb7565b506040820151816002019080519060200190610353929190610bb7565b50606082015181600301555050606460015442446103719190611354565b61037b9190611354565b610385919061145a565b6001819055506103cc6040518060400160405280601681526020017f52616e646f6d20232067656e6572617465643a20256400000000000000000000815250600154610a56565b603260015411610512576104156040518060400160405280600781526020017f257320776f6e210000000000000000000000000000000000000000000000000081525033610af2565b6000655af3107a4000905047811115610463576040517f08c379a000000000000000000000000000000000000000000000000000000000815260040161045a906111c2565b60405180910390fd5b60003373ffffffffffffffffffffffffffffffffffffffff168260405161048990611071565b60006040518083038185875af1925050503d80600081146104c6576040519150601f19603f3d011682016040523d82523d6000602084013e6104cb565b606091505b505090508061050f576040517f08c379a0000000000000000000000000000000000000000000000000000000008152600401610506906111e2565b60405180910390fd5b50505b3373ffffffffffffffffffffffffffffffffffffffff167f0646f10b0148fe8db9a43af10b6956b53e1478c47afc7132c17e243449dfd33942848460405161055c9392919061123d565b60405180910390a25050565b60006105ab6040518060400160405280601781526020017f5765206861766520256420746f74616c20776176657321000000000000000000815250600054610a56565b600054905090565b60036020528060005260406000206000915090505481565b60606002805480602002602001604051908101604052809291908181526020016000905b828210156107a557838290600052602060002090600402016040518060800160405290816000820160009054906101000a900473ffffffffffffffffffffffffffffffffffffffff1673ffffffffffffffffffffffffffffffffffffffff1673ffffffffffffffffffffffffffffffffffffffff16815260200160018201805461067890611428565b80601f01602080910402602001604051908101604052809291908181526020018280546106a490611428565b80156106f15780601f106106c6576101008083540402835291602001916106f1565b820191906000526020600020905b8154815290600101906020018083116106d457829003601f168201915b5050505050815260200160028201805461070a90611428565b80601f016020809104026020016040519081016040528092919081815260200182805461073690611428565b80156107835780601f1061075857610100808354040283529160200191610783565b820191906000526020600020905b81548152906001019060200180831161076657829003601f168201915b50505050508152602001600382015481525050815260200190600101906105ef565b50505050905090565b600281815481106107be57600080fd5b90600052602060002090600402016000915090508060000160009054906101000a900473ffffffffffffffffffffffffffffffffffffffff169080600101805461080790611428565b80601f016020809104026020016040519081016040528092919081815260200182805461083390611428565b80156108805780601f1061085557610100808354040283529160200191610880565b820191906000526020600020905b81548152906001019060200180831161086357829003601f168201915b50505050509080600201805461089590611428565b80601f01602080910402602001604051908101604052809291908181526020018280546108c190611428565b801561090e5780601f106108e35761010080835404028352916020019161090e565b820191906000526020600020905b8154815290600101906020018083116108f157829003601f168201915b5050505050908060030154905084565b6109b48160405160240161093291906110fb565b6040516020818303038152906040527f41304fac000000000000000000000000000000000000000000000000000000007bffffffffffffffffffffffffffffffffffffffffffffffffffffffff19166020820180517bffffffffffffffffffffffffffffffffffffffffffffffffffffffff8381831617835250505050610b8e565b50565b610a518383836040516024016109cf9392919061114d565b6040516020818303038152906040527fe0e9ad4f000000000000000000000000000000000000000000000000000000007bffffffffffffffffffffffffffffffffffffffffffffffffffffffff19166020820180517bffffffffffffffffffffffffffffffffffffffffffffffffffffffff8381831617835250505050610b8e565b505050565b610aee8282604051602401610a6c929190611192565b6040516020818303038152906040527f9710a9d0000000000000000000000000000000000000000000000000000000007bffffffffffffffffffffffffffffffffffffffffffffffffffffffff19166020820180517bffffffffffffffffffffffffffffffffffffffffffffffffffffffff8381831617835250505050610b8e565b5050565b610b8a8282604051602401610b0892919061111d565b6040516020818303038152906040527f319af333000000000000000000000000000000000000000000000000000000007bffffffffffffffffffffffffffffffffffffffffffffffffffffffff19166020820180517bffffffffffffffffffffffffffffffffffffffffffffffffffffffff8381831617835250505050610b8e565b5050565b60008151905060006a636f6e736f6c652e6c6f679050602083016000808483855afa5050505050565b828054610bc390611428565b90600052602060002090601f016020900481019282610be55760008555610c2c565b82601f10610bfe57805160ff1916838001178555610c2c565b82800160010185558215610c2c579182015b82811115610c2b578251825591602001919060010190610c10565b5b509050610c399190610c3d565b5090565b5b80821115610c56576000816000905550600101610c3e565b5090565b6000610c6d610c68846112b3565b611282565b905082815260208101848484011115610c8557600080fd5b610c908482856113e6565b509392505050565b600081359050610ca781611558565b92915050565b600082601f830112610cbe57600080fd5b8135610cce848260208601610c5a565b91505092915050565b600081359050610ce68161156f565b92915050565b600060208284031215610cfe57600080fd5b6000610d0c84828501610c98565b91505092915050565b60008060408385031215610d2857600080fd5b600083013567ffffffffffffffff811115610d4257600080fd5b610d4e85828601610cad565b925050602083013567ffffffffffffffff811115610d6b57600080fd5b610d7785828601610cad565b9150509250929050565b600060208284031215610d9357600080fd5b6000610da184828501610cd7565b91505092915050565b6000610db68383610fe9565b905092915050565b610dc7816113aa565b82525050565b610dd6816113aa565b82525050565b6000610de7826112f3565b610df18185611316565b935083602082028501610e03856112e3565b8060005b85811015610e3f5784840389528151610e208582610daa565b9450610e2b83611309565b925060208a01995050600181019050610e07565b50829750879550505050505092915050565b6000610e5c826112fe565b610e668185611332565b9350610e768185602086016113f5565b610e7f81611547565b840191505092915050565b6000610e95826112fe565b610e9f8185611343565b9350610eaf8185602086016113f5565b610eb881611547565b840191505092915050565b6000610ed0603483611343565b91507f547279696e6720746f207769746864726177206d6f7265206d6f6e657920746860008301527f616e2074686520636f6e7472616374206861732e0000000000000000000000006020830152604082019050919050565b6000610f36602783611343565b91507f4661696c656420746f207769746864726177206d6f6e65792066726f6d20636f60008301527f6e74726163742e000000000000000000000000000000000000000000000000006020830152604082019050919050565b6000610f9c600083611327565b9150600082019050919050565b6000610fb6600883611343565b91507f576169742031356d0000000000000000000000000000000000000000000000006000830152602082019050919050565b60006080830160008301516110016000860182610dbe565b50602083015184820360208601526110198282610e51565b915050604083015184820360408601526110338282610e51565b91505060608301516110486060860182611053565b508091505092915050565b61105c816113dc565b82525050565b61106b816113dc565b82525050565b600061107c82610f8f565b9150819050919050565b600060808201905061109b6000830187610dcd565b81810360208301526110ad8186610e8a565b905081810360408301526110c18185610e8a565b90506110d06060830184611062565b95945050505050565b600060208201905081810360008301526110f38184610ddc565b905092915050565b600060208201905081810360008301526111158184610e8a565b905092915050565b600060408201905081810360008301526111378185610e8a565b90506111466020830184610dcd565b9392505050565b600060608201905081810360008301526111678186610e8a565b90506111766020830185610dcd565b81810360408301526111888184610e8a565b9050949350505050565b600060408201905081810360008301526111ac8185610e8a565b90506111bb6020830184611062565b9392505050565b600060208201905081810360008301526111db81610ec3565b9050919050565b600060208201905081810360008301526111fb81610f29565b9050919050565b6000602082019050818103600083015261121b81610fa9565b9050919050565b60006020820190506112376000830184611062565b92915050565b60006060820190506112526000830186611062565b81810360208301526112648185610e8a565b905081810360408301526112788184610e8a565b9050949350505050565b6000604051905081810181811067ffffffffffffffff821117156112a9576112a8611518565b5b8060405250919050565b600067ffffffffffffffff8211156112ce576112cd611518565b5b601f19601f8301169050602081019050919050565b6000819050602082019050919050565b600081519050919050565b600081519050919050565b6000602082019050919050565b600082825260208201905092915050565b600081905092915050565b600082825260208201905092915050565b600082825260208201905092915050565b600061135f826113dc565b915061136a836113dc565b9250827fffffffffffffffffffffffffffffffffffffffffffffffffffffffffffffffff0382111561139f5761139e61148b565b5b828201905092915050565b60006113b5826113bc565b9050919050565b600073ffffffffffffffffffffffffffffffffffffffff82169050919050565b6000819050919050565b82818337600083830152505050565b60005b838110156114135780820151818401526020810190506113f8565b83811115611422576000848401525b50505050565b6000600282049050600182168061144057607f821691505b60208210811415611454576114536114e9565b5b50919050565b6000611465826113dc565b9150611470836113dc565b9250826114805761147f6114ba565b5b828206905092915050565b7f4e487b7100000000000000000000000000000000000000000000000000000000600052601160045260246000fd5b7f4e487b7100000000000000000000000000000000000000000000000000000000600052601260045260246000fd5b7f4e487b7100000000000000000000000000000000000000000000000000000000600052602260045260246000fd5b7f4e487b7100000000000000000000000000000000000000000000000000000000600052604160045260246000fd5b6000601f19601f8301169050919050565b611561816113aa565b811461156c57600080fd5b50565b611578816113dc565b811461158357600080fd5b5056fea26469706673582212207bd1a514013b630726bbe1a0e51b8ab4c63756683f309cefd88d9a94f1a2900864736f6c63430008000033",
  "linkReferences": {},
  "deployedLinkReferences": {}
}